:020000040800F2
:1000000000060020890100088D0100088F0100080A
:10001000910100089301000895010008000000000C
:100020000000000000000000000000009701000830
:1000300099010008000000009B0100089D010008D4
:100040009F0100089F0100089F0100089F01000810
:100050009F0100089F0100089F0100089F01000800
:100060009F0100089F0100089F0100089F010008F0
:100070009F0100089F0100089F0100089F010008E0
:100080009F0100089F0100089F0100089F010008D0
:100090009F0100089F0100089F0100089F010008C0
:1000A0009F0100089F0100089F0100089F010008B0
:1000B0009F0100089F0100089F0100089F010008A0
:1000C0009F0100089F0100089F0100089F01000890
:1000D0009F0100089F0100089F0100089F01000880
:1000E0009F0100089F0100089F0100089F01000870
:1000F0009F0100089F0100089F0100089F01000860
:100100000000000000000000000000009F01000847
:100110009F0100089F0100089F0100089F0100083F
:100120009F0100089F0100089F0100089F0100082F
:100130009F0100089F01000800000000000000006F
:100140009F0100089F0100089F01000800000000B7
:10015000000000000000000000000000000000009F
:1001600000000000000000009F0100089F0100083F
:100170009F010008000000000000000000000000D7
:10018000000000009F01000805480047FEE7FEE769
:10019000FEE7FEE7FEE7FEE7FEE7FEE7FEE7FEE737
:1001A000A501000800F047F800BF00BF4FF00007AE
:1001B0004FF09A034FF0090400F029F800F014F80A
:1001C0005B08013C03D013F0010F27D12DD000F0C4
:1001D00017F800F009F800F00DF84FF094034FF015
:1001E000090400F014F8E3E700B54FF48772013A10
:1001F000FDD100BD00B54FF4FA72013AFDD100BD4A
:1002000000B51848016841F00401016000BD00B567
:100210001448016821F00401016000BD00BF1148CD
:10022000016841F004010160C8E70E48016821F04F
:1002300004010160C2E70C48016841F4003101602B
:100240004FF09040016821F0300141F01001016051
:100250004FF09040016821F4406141F480610160F9
:0C02600070470000140000481410024019
:0400000500000000F7
:00000001FF
