:020000040800F2
:1000000000060020890100088D0100088F0100080A
:10001000910100089301000895010008000000000C
:100020000000000000000000000000009701000830
:1000300099010008000000009B0100089D010008D4
:100040009F0100089F0100089F0100089F01000810
:100050009F0100089F0100089F0100089F01000800
:100060009F0100089F0100089F0100089F010008F0
:100070009F0100089F0100089F0100089F010008E0
:100080009F0100089F0100089F0100089F010008D0
:100090009F0100089F0100089F0100089F010008C0
:1000A0009F0100089F0100089F0100089F010008B0
:1000B0009F0100089F0100089F0100089F010008A0
:1000C0009F0100089F0100089F0100089F01000890
:1000D0009F0100089F0100089F0100089F01000880
:1000E0009F0100089F0100089F0100089F01000870
:1000F0009F0100089F0100089F0100089F01000860
:100100000000000000000000000000009F01000847
:100110009F0100089F0100089F0100089F0100083F
:100120009F0100089F0100089F0100089F0100082F
:100130009F0100089F01000800000000000000006F
:100140009F0100089F0100089F01000800000000B7
:10015000000000000000000000000000000000009F
:1001600000000000000000009F0100089F0100083F
:100170009F010008000000000000000000000000D7
:10018000000000009F01000805480047FEE7FEE769
:10019000FEE7FEE7FEE7FEE7FEE7FEE7FEE7FEE737
:1001A000A501000800F058F800BF00BF00F046F8B5
:1001B000304A00F03FF800F048F82F48016911F488
:1001C000005FFAD12D4A2C48016911F4005F10D16B
:1001D000013AF8D100F032F8294A2748016911F4B0
:1001E000005F24D1013AF8D12348016911F4005F7E
:1001F000FAD000F023F8234A00F01CF800F025F8AC
:10020000204A00F017F81E4A1B48016911F4005FEC
:1002100000D0EEE71848016911F4005FE9D1013A16
:10022000F8D100F00BF8134A00F004F8C3E700F02F
:1002300001F8C0E700B5013AFDD100BD00B5124894
:10024000016841F02001016000BD00B50E48016861
:1002500021F02001016000BD0C48016841F420211B
:1002600001604FF09040016821F4406141F48061E9
:1002700001607047D5DC32000008004847F41000E8
:1002800020A1070090D00300140000481410024081
:0400000500000000F7
:00000001FF
