:020000040800F2
:1000000000060020890100088D0100088F0100080A
:10001000910100089301000895010008000000000C
:100020000000000000000000000000009701000830
:1000300099010008000000009B0100089D010008D4
:100040009F0100089F0100089F0100089F01000810
:100050009F0100089F0100089F0100089F01000800
:100060009F0100089F0100089F0100089F010008F0
:100070009F0100089F0100089F0100089F010008E0
:100080009F0100089F0100089F0100089F010008D0
:100090009F0100089F0100089F0100089F010008C0
:1000A0009F0100089F0100089F0100089F010008B0
:1000B0009F0100089F0100089F0100089F010008A0
:1000C0009F0100089F0100089F0100089F01000890
:1000D0009F0100089F0100089F0100089F01000880
:1000E0009F0100089F0100089F0100089F01000870
:1000F0009F0100089F0100089F0100089F01000860
:100100000000000000000000000000009F01000847
:100110009F0100089F0100089F0100089F0100083F
:100120009F0100089F0100089F0100089F0100082F
:100130009F0100089F01000800000000000000006F
:100140009F0100089F0100089F01000800000000B7
:10015000000000000000000000000000000000009F
:1001600000000000000000009F0100089F0100083F
:100170009F010008000000000000000000000000D7
:10018000000000009F01000805480047FEE7FEE769
:10019000FEE7FEE7FEE7FEE7FEE7FEE7FEE7FEE737
:1001A000A501000800F060F800BF00BF4FF04D034C
:1001B00000F009F800F037F84FF04A0300F003F8B8
:1001C00000F031F8F2E700B54FF0080400F038F81D
:1001D00000F023F813F0010F39D13FD000F029F8D7
:1001E00000F01BF800BD4FF06402013AFDD14FF062
:1001F00046022848016841F020010160013AFDD122
:100200002448016821F0200101604FF06402013AA6
:10021000FDD15B08013CE1D0DCE700B54FF4897209
:10022000013AFDD100BD00B54FF47A72013AFDD11B
:1002300000BD00B51748016841F00401016000BD30
:1002400000B51448016821F00401016000BD00BF41
:100250001048016841F004010160C4E70D480168DD
:1002600021F004010160BEE70B48016841F4003150
:1002700001604FF09040016821F0300141F0100121
:1002800001604FF09040016821F4406141F48061C9
:0C02900001607047140000481410024088
:0400000500000000F7
:00000001FF
