:020000040800F2
:1000000000040020890100088D0100088F0100080C
:10001000910100089301000895010008000000000C
:100020000000000000000000000000009701000830
:1000300099010008000000009B0100089D010008D4
:100040009F0100089F0100089F0100089F01000810
:100050009F0100089F0100089F0100089F01000800
:100060009F0100089F0100089F0100089F010008F0
:100070009F0100089F0100089F0100089F010008E0
:100080009F0100089F0100089F0100089F010008D0
:100090009F0100089F0100089F0100089F010008C0
:1000A0009F0100089F0100089F0100089F010008B0
:1000B0009F0100089F0100089F0100089F010008A0
:1000C0009F0100089F0100089F0100089F01000890
:1000D0009F0100089F0100089F0100089F01000880
:1000E0009F0100089F0100089F0100089F01000870
:1000F0009F0100089F0100089F0100089F01000860
:100100000000000000000000000000009F01000847
:100110009F0100089F0100089F0100089F0100083F
:100120009F0100089F0100089F0100089F0100082F
:100130009F0100089F01000800000000000000006F
:100140009F0100089F0100089F01000800000000B7
:10015000000000000000000000000000000000009F
:1001600000000000000000009F0100089F0100083F
:100170009F010008000000000000000000000000D7
:10018000000000009F01000805480047FEE7FEE769
:10019000FEE7FEE7FEE7FEE7FEE7FEE7FEE7FEE737
:1001A000A501000800F05AF84FF000043248016938
:1001B00011F4005F0AD113F4005F07D000F01EF8BD
:1001C0004FF00A0000F041F80B46EFE70B464FF006
:1001D0000A0000F03AF8002C15D0012C20D0E5E7F9
:1001E00000B54FF090404FF02001816100BD00B597
:1001F0004FF090404FF40011816100BD00B5012C1B
:100200001BD01ED100BDFFF7EBFF4FF0640000F0E4
:100210001CF8FFF7ECFF4FF0640000F016F8C5E79C
:10022000FFF7DEFF4FF4FA7000F00FF8FFF7DFFF83
:100230004FF0640000F009F8B8E700B54FF0000493
:1002400000BD00B54FF0010400BD03B54FF4FA61E5
:1002500000FB01F0013800BFFCD103BD00B5074829
:10026000016841F4202101604FF09040016841F4A1
:100270008061016000BD00000008004814100240C9
:04000005080001A549
:00000001FF
