:020000040800F2
:1000000000040020890100088D0100088F0100080C
:10001000910100089301000895010008000000000C
:100020000000000000000000000000009701000830
:1000300099010008000000009B0100089D010008D4
:100040009F0100089F0100089F0100089F01000810
:100050009F0100089F0100089F0100089F01000800
:100060009F0100089F0100089F0100089F010008F0
:100070009F0100089F0100089F0100089F010008E0
:100080009F0100089F0100089F0100089F010008D0
:100090009F0100089F0100089F0100089F010008C0
:1000A0009F0100089F0100089F0100089F010008B0
:1000B0009F0100089F0100089F0100089F010008A0
:1000C0009F0100089F0100089F0100089F01000890
:1000D0009F0100089F0100089F0100089F01000880
:1000E0009F0100089F0100089F0100089F01000870
:1000F0009F0100089F0100089F0100089F01000860
:100100000000000000000000000000009F01000847
:100110009F0100089F0100089F0100089F0100083F
:100120009F0100089F0100089F0100089F0100082F
:100130009F0100089F01000800000000000000006F
:100140009F0100089F0100089F01000800000000B7
:10015000000000000000000000000000000000009F
:1001600000000000000000009F0100089F0100083F
:100170009F010008000000000000000000000000D7
:10018000000000009F01000805480047FEE7FEE769
:10019000FEE7FEE7FEE7FEE7FEE7FEE7FEE7FEE737
:1001A000A501000800F02EF81D48016911F4005F58
:1001B00009D113F4005F06D000F00DF84FF00A00EB
:1001C00000F017F8F0E70B4600F00CF84FF00A00CB
:1001D00000F00FF8E8E700B54FF090404FF0200135
:1001E000816100BD00B54FF090404FF40011816176
:1001F00000BD03B54FF4FA6100FB01F0013800BF08
:10020000FCD103BD00B50748016841F4202101601D
:100210004FF09040016841F48061016000BD000032
:08022000000800481410024020
:04000005080001A549
:00000001FF
