:020000040800F2
:1000000020060020890100088D0100088F010008EA
:10001000910100089301000895010008000000000C
:100020000000000000000000000000009701000830
:1000300099010008000000009B0100089D010008D4
:100040009F0100089F0100089F0100089F01000810
:100050009F0100089F0100089F0100089F01000800
:100060009F0100089F0100089F0100089F010008F0
:100070009F0100089F0100089F0100089F010008E0
:100080009F0100089F0100089F0100089F010008D0
:100090009F0100089F0100089F0100089F010008C0
:1000A0009F0100089F0100089F0100089F010008B0
:1000B0009F0100089F0100089F0100089F010008A0
:1000C0009F0100089F0100089F0100089F01000890
:1000D0009F0100089F0100089F0100089F01000880
:1000E0009F0100089F0100089F0100089F01000870
:1000F0009F0100089F0100089F0100089F01000860
:100100000000000000000000000000009F01000847
:100110009F0100089F0100089F0100089F0100083F
:100120009F0100089F0100089F0100089F0100082F
:100130009F0100089F01000800000000000000006F
:100140009F0100089F0100089F01000800000000B7
:10015000000000000000000000000000000000009F
:1001600000000000000000009F0100089F0100083F
:100170009F010008000000000000000000000000D7
:10018000000000009F01000805480047FEE7FEE769
:10019000FEE7FEE7FEE7FEE7FEE7FEE7FEE7FEE737
:1001A000A501000800F0DFF95E4C00F07CF900F0DA
:1001B000CFF900F0ACF95C4801684FF0200211F073
:1001C000200F00D1F5E7594801684FF073039942B9
:1001D00000D0EEE74FF0200200F0B1F9544801687A
:1001E0004FF003020A42F9D1524A00F0B5F85248E2
:1001F00002684FEA920200F0AFF8016811F0010FB7
:1002000007BF402202248022012411F0010F0CBFFD
:1002100001250225134600F08AF94548474A01683E
:1002200021420CD1294201D1013AF8D1013C434A83
:100230004348D0F8021001F10101817010E0013C47
:100240003E48821A3E4814F0010F0CBF01784178F5
:1002500001F1010114F0010F0CBF01704170FFE7C3
:10026000374814F0010F07BFC178364B01794FF0C2
:1002700020234FEA810143F801204FEA910101F167
:10028000010114F0010F0CBFC170017114F0010FD6
:100290000CBF8022402200F052F92948D0F8021009
:1002A000FF290CD0D0F80310FF2908D04168FF299E
:1002B00005D01E4801684FF0760399428AD14FF06D
:1002C000200200F034F94FF0000500F0A8F84FF0DC
:1002D000010500F0A4F81C4C00F0E5F818484FF0B8
:1002E0000001847800F077F800F0BCF8174C00F0BB
:1002F000DAF8174C00F0D7F8154C00F0D4F800F0FD
:1003000027F9094801684FF0200211F0200F00D1B1
:10031000F7E7064801684FF0730399423FF45AAF7C
:10032000EFE70000BF0600081C44004024440040E2
:10033000100000486B6E1900242C014025B80800FD
:100340000000002000100020A60700089206000808
:10035000950600080000000000B5013AFDD100BD7F
:100360000FB501F10301405CA1F1030111F0010F90
:100370000CBFA1494FF020210246002A19D04FF0AE
:100380000004013A0ED04FEA820251F802301C44B8
:100390004FEA9202013AF6D151F802301C44B4FB04
:1003A000F0F406E04FEA820251F802301C444FEAB2
:1003B0009202002808BF4FF0FF340FBD03B5B4F11F
:1003C000FF3F07D04FF007004FF4FA5100FB04F451
:1003D000B4FBF1F403BD0FB5B4F1FF3F1ED0874865
:1003E0004FF0000101F10101643CFBD204F164040F
:1003F000A1F1010100F8011B4FF0000101F1010121
:100400000A3CFBD204F10A04A1F1010100F8011B2E
:1004100000F8014B4FF0FF0100F8011B0FBD1FB5A5
:10042000002D0CBF764C774C00F03DF876482946FD
:10043000FFF796FFFFF7C2FFFFF7CDFF00F045F88B
:10044000002D0CBF714C724C00F02DF8445DFFF78D
:10045000C2FF00F007F86F4C00F025F86D4C00F07B
:1004600022F81FBD3FB5654C4FF000056B48016891
:1004700011F0800FFAD06A4814F8013BFF2B0DD021
:10048000002B01D1002DF1D003F1300303704FF0A8
:1004900001054FF00F02FFF75FFFE7E7002D04BFF4
:1004A000302303703FBD0FB55C48016811F0800F29
:1004B000FAD05B4814F8013B03704FF00F02FFF7CE
:1004C0004BFF002B00D0EFE70FBD0FB5B4F1FF3F9E
:1004D00019D0514CFFF7E7FF484C5048016811F024
:1004E000800FFAD04E4814F8013BFF2B07D003F1E0
:1004F000300303704FF00F02FFF72EFFEDE7494C7A
:10050000FFF7D1FF02E0484CFFF7CDFF0FBD00B56C
:100510004FF0200200F00BF8454AFFF71DFF4FF0A7
:10052000200200F00CF8424AFFF716FF00BD00B5AC
:1005300000BF4048016841EA0201016000BD00B50A
:100540003C48016882F0FF3201EA0201016000BD0F
:1005500000B54FF008012C484FF000024254013919
:10056000FCD1425400BD3448016841F420210160AF
:100570004FF09040016821F4406141F480610160D6
:100580004FF09040016821F4405141F480510160E6
:100590004FF09040016821F4404141F480410160F6
:1005A0004FF09040016821F4404141F480410160E6
:1005B0004FF09040016841F0A00101601F484FF4E6
:1005C000EE4101601E48016841F4003101601D48A0
:1005D00040F2413101601C48016841F00D010160A9
:1005E0001A48016841F4006101601948016841F04E
:1005F0000101016070470000001000200030002061
:100600002E0700086A070008000000204B070008BA
:1006100087070008920600088A0600081C4400406C
:10062000284400408D060008540600080000000021
:10063000F049020014000048141002402000004855
:100640001C1002400C4400400044004018100240BE
:10065000002C01404E65646F737461746F636E7932
:1006600020706F636574206D6572616E69206E61C4
:10067000207679686F746F76656E6965207072692F
:10068000656D65727521200D0A00302E0020730DF6
:100690000A000D0A002D2D2D2D2D2D2D2D2D2D2D4A
:1006A0002D2D2D2D2D2D2D2D2D2D2D2D2D2D2D2D7A
:1006B0002D2D2D2D2D2D2D2D2D2D2D2D0D0A0054B3
:1006C0006573746572207265616B6369652056326B
:1006D000200D0A4175746F723A204D6174656A206D
:1006E0004A757263696B200D0A526F6B3A20323083
:1006F0003139200D0A2D2D2D2D2D2D2D2D2D2D2D6A
:100700002D2D2D0D0A73202D2073707573746920A3
:10071000544553540D0A76202D20207679686F6455
:100720006E6F74207265616B6369750D0A0050729B
:1007300069656D65726E7920636173207265616BA6
:10074000636965204D52313A0D0A00506F6365743C
:100750002073746C6163656E6920746C6163696495
:100760006C6120544C313A0D0A00507269656D6518
:10077000726E7920636173207265616B63696520B5
:100780004D52323A0D0A00506F6365742073746CD9
:100790006163656E6920746C616369646C61205487
:1007A0004C323A0D0A00506F6365742063687962B9
:1007B0006E79636820706F6B75736F763A0D0A00FF
:1007C0000000000000000000000000000000000029
:1007D0000000000000000000000000000000000019
:0400000500000000F7
:00000001FF
