:020000040800F2
:1000000000060020890100088D0100088F0100080A
:10001000910100089301000895010008000000000C
:100020000000000000000000000000009701000830
:1000300099010008000000009B0100089D010008D4
:100040009F0100089F0100089F0100089F01000810
:100050009F0100089F0100089F0100089F01000800
:100060009F0100089F0100089F0100089F010008F0
:100070009F0100089F0100089F0100089F010008E0
:100080009F0100089F0100089F0100089F010008D0
:100090009F0100089F0100089F0100089F010008C0
:1000A0009F0100089F0100089F0100089F010008B0
:1000B0009F0100089F0100089F0100089F010008A0
:1000C0009F0100089F0100089F0100089F01000890
:1000D0009F0100089F0100089F0100089F01000880
:1000E0009F0100089F0100089F0100089F01000870
:1000F0009F0100089F0100089F0100089F01000860
:100100000000000000000000000000009F01000847
:100110009F0100089F0100089F0100089F0100083F
:100120009F0100089F0100089F0100089F0100082F
:100130009F0100089F01000800000000000000006F
:100140009F0100089F0100089F01000800000000B7
:10015000000000000000000000000000000000009F
:1001600000000000000000009F0100089F0100083F
:100170009F010008000000000000000000000000D7
:10018000000000009F01000805480047FEE7FEE769
:10019000FEE7FEE7FEE7FEE7FEE7FEE7FEE7FEE737
:1001A000A501000800F042F800BF00BF00F026F8EB
:1001B00000F024F800F022F800F02CF800F02AF803
:1001C00000F028F800F01AF800F018F800F016F81F
:1001D0001D4A00F001F8E9E700B5013AFDD100BD84
:1001E00000B51A48016821F02001016000BD00B58A
:1001F0001648016841F02001016000BD00B5144AB5
:10020000FFF7F5FFFFF7E8FF114AFFF7E9FFFFF7F8
:10021000E3FF00BD00B50C4AFFF7E9FFFFF7DCFF85
:100220000B4AFFF7DDFFFFF7D7FF00BD0948016864
:1002300041F4003101604FF09040016821F44061C9
:1002400041F480610160704780841E001400004802
:0802500040420F0014100240AF
:0400000500000000F7
:00000001FF
